:100000000C94AF000C9414060C94ED050C94F407BA
:100010000C949D070C943C070C9493060C94AA0630
:100020000C94D7000C94EC060C94D7000C94D700D9
:100030000C94D7000C9416070C94D7000C94D7009E
:100040000C94A3050C94D7000C9461060C943B0609
:100050000C94D7000C94E2060C94D7000C94D700B3
:100060000C94D7000C94D700000000002300260059
:100070002900000000000000000002140505000037
:10008000000002010A010000000000000000000062
:10009000000000000000000000000603050101014F
:1000A000010A060101010501050A0206020200001B
:1000B00000000501080404040400002E0206030DDC
:1000C00004E905CA070C0B060D210E650F6A10C85E
:1000D0001193120315341703181819161B431E2FFA
:1000E0001F65207823E9242A251F26113E030000DE
:1000F0000000240027002A0000000000250028003E
:100100002B00040404040404040402020202020298
:100110000303030303030202030102040810204047
:1001200080010204081020010204081020408040D1
:1001300000000009000302000004050800000000A0
:1001400000000000000000FFFFFF2E2E2E2E2E2E9E
:100150002E2E2E2E00000010400000004B0811240F
:100160001FBECFEFD8E0DEBFCDBF11E0A0E0B1E011
:10017000ECEBFAE102C005900D92AE34B107D9F76D
:1001800022E0AEE4B1E001C01D92A43FB207E1F766
:1001900010E0CFEAD0E004C02197FE010E94280CB5
:1001A000CE3AD107C9F70E94FF080C945C0D0C945D
:1001B0000000782F8827769531F008F48627660F9F
:1001C00008F46427F8CF08F4862708958CBD9DBDF8
:1001D0000895843081F028F48230E9F08330F9F01A
:1001E0000895883071F0893091F08530B9F48091AC
:1001F00080008F7D03C0809180008F778093800086
:1002000008958091B0008F778093B0000895809119
:10021000B0008F7DF9CF84B58F7784BD089584B504
:100220008F7DFBCF1F93CF93DF93282F30E0F90111
:10023000E05DFE4F8491F901E75EFE4FD491F90134
:10024000EE5FFE4FC491CC23A9F0162F81110E94BE
:10025000E900EC2FF0E0EE0FFF1FE850FF4FA591F3
:10026000B4918FB7F894EC91111108C0D095DE23AA
:10027000DC938FBFDF91CF911F910895DE2BF8CFD4
:10028000CF93DF9390E0FC01E75EFE4F24918E5FF9
:100290009E4FFC0184918823D1F090E0880F991F34
:1002A000FC01E251FF4FA591B491FC01E850FF4FD2
:1002B000C591D49161110EC09FB7F8948C91E22F33
:1002C000E0958E238C932881E223E8839FBFDF9102
:1002D000CF9108958FB7F894EC91E22BEC938FBFF8
:1002E000F6CF0895AF92BF92CF92DF92EF92FF9236
:1002F0000F931F93CF93DF936C017B018B01040F4E
:10030000151FEB015E01AE18BF08C017D10759F0E9
:100310006991D601ED91FC910190F081E02DC6012B
:100320000995892B79F7C501DF91CF911F910F9125
:10033000FF90EF90DF90CF90BF90AF900895FC01B9
:10034000538D448D252F30E0842F90E0821B930B3A
:10035000541710F0CF96089501970895FC01918DE0
:10036000828D981761F0A28DAE0FBF2FB11D5D96E3
:100370008C91928D9F5F9F73928F90E008958FEF85
:100380009FEF0895FC01918D828D981731F0828D39
:10039000E80FF11D858D90E008958FEF9FEF089590
:1003A000FC01918D228D892F90E0805C9F4F821BF4
:1003B00091098F739927089588E691E00E94D001F2
:1003C00021E0892B09F420E0822F089580E090E05D
:1003D000892B29F00E94DC0181110C940000089502
:1003E000FC01A48DA80FB92FB11DA35ABF4F2C91AA
:1003F000848D90E001968F739927848FA689B789A1
:100400002C93A089B1898C91837080648C93938D97
:10041000848D981306C00288F389E02D80818F7D3A
:1004200080830895EF92FF920F931F93CF93DF93F2
:10043000EC0181E0888F9B8D8C8D98131AC0E88920
:10044000F989808185FF15C09FB7F894EE89FF89EF
:100450006083E889F98980818370806480839FBF8D
:1004600081E090E0DF91CF911F910F91FF90EF908D
:100470000895F62E0B8D10E00F5F1F4F0F7311279D
:10048000E02E8C8D8E110CC00FB607FCFACFE889D8
:10049000F989808185FFF5CFCE010E94F001F1CF6F
:1004A000EB8DEC0FFD2FF11DE35AFF4FF0829FB74C
:1004B000F8940B8FEA89FB8980818062CFCFCF933C
:1004C000DF93EC01888D8823B9F0AA89BB89E8897C
:1004D000F9898C9185FD03C0808186FD0DC00FB622
:1004E00007FCF7CF8C9185FFF2CF808185FFEDCFA0
:1004F000CE010E94F001E9CFDF91CF910895CF9214
:10050000DF92EF92FF920F931F93CF93DF93CCE391
:10051000D1E005E211E09EE0E92E91E0F92EFE0126
:100520008491F801C490F701D490DD2071F081111D
:100530000E94E900ED2DF0E0EE0FFF1FE859FF4F9C
:10054000A591B4918C91C82251F7DF91CF911F9161
:100550000F91FF90EF90DF90CF90089561E08AE0D7
:100560000C94120160E08AE00C941201FC011086E8
:1005700008950895FC018289938961E0911101C079
:1005800060E00C941201E0915D01F0915E018385C1
:1005900081FD03C083858C6083870895FC01848975
:1005A000882341F08289938960E0911101C061E064
:1005B0000C941201089580E0089508950895089517
:1005C00008952FB7F894FC01808191812FBF089581
:1005D000FF920F931F93CF93DF93EC018B01FFB634
:1005E000F8940E94E1029C019FB7F894F8013183CE
:1005F00020839FBF8FB7F894198308838FBFFFBEF6
:10060000DF91CF911F910F91FF9008956F927F928C
:100610008F92DF92EF92FF920F931F93CF93DF930E
:100620007B0122E0E20EF11CDB0115962D913D913C
:100630004C91232B242B09F44DC0EB01DFB6F89429
:100640002C8122602C838C010E94E102009709F426
:100650003EC0FC013297A1F06580768087802D81B5
:100660003E814F81CF01029662167306840650F4D4
:100670002619370948092D833E834F838C01E4CF27
:1006800090E080E02FB7F8949B838A832FBF8FB7C9
:10069000F894D801ED92FC928FBF309761F085817C
:1006A0009681A7812D813E814F81821B930BA40BE4
:1006B00085839683A783DFBEDF91CF911F910F9132
:1006C000FF90EF90DF908F907F906F900895F0E013
:1006D000E0E0D8CFB7010296DF91CF911F910F9143
:1006E000FF90EF90DF908F907F906F900C94E802D6
:1006F0000F931F93CF93DF93EC018B01E88981E087
:100700008E0F888BEC0FFD2FF11D228530E0A4E6C3
:10071000B0E00E94120C2AE030E040E050E00E947D
:10072000F00B2D833E834F83BE01C8010E94060358
:1007300088898170DF91CF911F910F910895CF9398
:10074000DF93FC01DB012C912950330B90E09217D1
:10075000130614F49F5FFBCF0280F381E02D8285A6
:10076000811112C0EF01229682E0828781E08387A7
:1007700084871586138A128A63E172E0CE010E9493
:100780007803CE010E94CE0281E0DF91CF910895DF
:10079000EF92FF920F931F93CF93DF93EC01FFB67D
:1007A000F8940E94E1028C01892B71F0EFB6F89465
:1007B000CE010E94E1020E94E1029C019FB7F894E1
:1007C000398328839FBFEFBEFFBEC801DF91CF9161
:1007D0001F910F91FF90EF900895BF92CF92DF92FB
:1007E000EF92FF920F931F93CF93DF93EC01FFB62D
:1007F000F8948C818D7F8C8383E192E00E94E102EA
:100800000097C9F19C012250310983E192E0211542
:10081000310589F189010E5F1F4FC217D30709F512
:100820000E94C803C8010E94E102009779F0FC0110
:10083000329761F085819681A7812D813E814F811C
:10084000820F931FA41F85839683A783FFBEDF912A
:10085000CF911F910F91FF90EF90DF90CF90BF90BD
:100860000895C8010E94E102009729F09C012250DE
:100870003109C801CCCF6E0182E0C80ED11CEFB6A1
:10088000F894BFB6F89485E192E00E94E102EC0191
:1008900025E132E0209779F010E000E0CC16DD068B
:1008A00009F48901CE010E94E1029E0101151105A2
:1008B00021F4EC01EFCF10E000E0BFBE01151105FF
:1008C00011F4EFBEC3CFC8010E94C803FACFCF9284
:1008D000DF92FF920F931F93CF93DF938C01FFB6AC
:1008E000F8940E94E102009769F1EC01229751F11E
:1008F0008D819E81AF810197A1098D839E83AF83F6
:10090000680182E0C80ED11C8D819E81AF81892B48
:100910008A2BC1F4C8010E94C8038C8180FF1CC0CF
:100920008D7F8C83E881F9810190F081E02DB80101
:10093000CE010995C8010E94E102009719F0EC016F
:10094000229711F7FFBEC801DF91CF911F910F9140
:10095000FF90DF90CF900895BE016E5F7F4FC6017C
:100960000E94E802E7CF08958EBD00000DB407FE97
:10097000FDCF8EB5089580E590E00E94E6000E94CC
:10098000B20280E00E94B4040C94AE02CF93C82F50
:1009900080E590E00E94E6000E94B2028C2F0E9447
:1009A000B404C82F0E94AE028C2FCF91089586E325
:1009B0000E94C6048DE30E94C6048AE30C94C60418
:1009C000CF93DF93D82FC62F80E590E00E94E600FA
:1009D0000E94B2028D2F8C2B0E94B40480E00E94F2
:1009E000B404C82F0E94AE028C2FDF91CF910895DE
:1009F000CF93DF93EC01CB01BE01675A7F4F2BE40D
:100A000030E040E0FB012583368347830E940603E4
:100A10000A80DB81C02D60EC84E30E94E004282F73
:100A200030E0082E000C990B88279170A901481B13
:100A3000590BCA0157FD019695958795919581951A
:100A40009109865B8AA3DF91CF9108958955910919
:100A50000C94F8041F93CF93DF93D82F162FC42F35
:100A600080E590E00E94E6000E94B2028D2F0E9475
:100A7000B404812F0E94B4040E94AE0260E88D2F5E
:100A80000E94E004181799F080E0CC2361F04FEF4A
:100A90004C0F612F8D2F0E942A05EFECF7E0319764
:100AA000F1F700C00000DF91CF911F91089581E020
:100AB000FACF1F93CF93DF93EC011FB7F894988977
:100AC0008885981760F4CE010E9478031FBF8823A1
:100AD000C1F0CE01DF91CF911F910C94CE02188A04
:100AE0009985992381F389898F5F898B891758F3B9
:100AF00048E050E062E770E0CE0108960E947F0B6C
:100B00001FBFCE01DF91CF911F910C94BA02CF93FA
:100B1000DF931F92CDB7DEB7198241E050E0BC01F0
:100B2000CE0101960E94880B89810F90DF91CF91B1
:100B300008950C94CA0C0C94CA0C0C94CA0C0C9416
:100B4000CA0C0C94CA0C1F920F920FB60F9211246C
:100B50002F933F938F939F93AF93BF9380916401A3
:100B600090916501A0916601B09167013091630198
:100B700026E0230F2D3768F129E8230F0396A11DE6
:100B8000B11D209363018093640190936501A0934C
:100B90006601B093670180915F0190916001A0911F
:100BA0006101B09162010196A11DB11D80935F01A9
:100BB00090936001A0936101B0936201BF91AF91E6
:100BC0009F918F913F912F910F900FBE0F901F908B
:100BD00018950296A11DB11DD4CF1F920F920FB68A
:100BE0000F9211242F933F934F935F936F937F93B3
:100BF0008F939F93AF93BF93EF93FF93E091020185
:100C0000F09103010995FF91EF91BF91AF919F91F1
:100C10008F917F916F915F914F913F912F910F90A5
:100C20000FBE0F901F9018951F920F920FB60F9244
:100C300011242F933F934F935F936F937F938F93E1
:100C40009F93AF93BF93EF93FF93E0910001F091D7
:100C500001010995FF91EF91BF91AF919F918F9104
:100C60007F916F915F914F913F912F910F900FBEA8
:100C70000F901F9018951F920F920FB60F9211248C
:100C80002F933F934F935F936F937F938F939F9394
:100C9000AF93BF93EF93FF9388E691E00E94F0013A
:100CA000FF91EF91BF91AF919F918F917F916F9144
:100CB0005F914F913F912F910F900FBE0F901F901A
:100CC00018951F920F920FB60F9211242F938F93A6
:100CD0009F93EF93FF93E0917801F09179018081E8
:100CE000E0917E01F0917F0182FD1BC09081809197
:100CF00081018F5F8F7320918201821741F0E09113
:100D00008101F0E0E859FE4F958F80938101FF91BA
:100D1000EF919F918F912F910F900FBE0F901F9089
:100D200018958081F4CF1F920F920FB60F92112465
:100D30008F930FB6F894A895809160008861809396
:100D40006000109260000FBE8F910F900FBE0F9049
:100D50001F9018951F920F920FB60F9211242F9388
:100D60003F934F935F936F937F938F939F93AF9333
:100D7000BF93CF93DF93EF93FF93C5E0D2E060E0A2
:100D800089810E9412011092B1006A817B818C815D
:100D90009D810E94980B6093B30081E08E83FF9148
:100DA000EF91DF91CF91BF91AF919F918F917F9103
:100DB0006F915F914F913F912F910F900FBE0F90C8
:100DC0001F9018951F920F920FB60F9211240F903B
:100DD0000FBE0F901F9018951F920F920FB60F9293
:100DE00011242F933F934F935F936F937F938F9330
:100DF0009F93AF93BF93EF93FF93EEE0F2E0848174
:100E00008F5F8483CF010E946704FF91EF91BF91B0
:100E1000AF919F918F917F916F915F914F913F9192
:100E20002F910F900FBE0F901F9018951F920F9249
:100E30000FB60F9211242F933F934F935F936F93AD
:100E40007F938F939F93AF93BF93EF93FF9383E130
:100E500092E00E946704FF91EF91BF91AF919F9143
:100E60008F917F916F915F914F913F912F910F9053
:100E70000FBE0F901F9018951F920F920FB60F92F2
:100E800011242F933F934F935F936F937F938F938F
:100E90009F93AF93BF93CF93EF93FF9399B1C0917B
:100EA00058018091570130915601292F2095232315
:100EB0008923822B20916D00C927C223C8239093D8
:100EC0005801CC2341F1C0FF03C0F0E0E0E00995F8
:100ED000C1FF03C0F0E0E0E00995C2FF03C0F0E00D
:100EE000E0E00995C3FF03C0F0E0E0E00995C4FF2E
:100EF00003C0F0E0E0E00995C5FF03C0F0E0E0E0EA
:100F00000995C6FF03C0F0E0E0E00995C7FF03C004
:100F1000F0E0E0E00995FF91EF91CF91BF91AF91A3
:100F20009F918F917F916F915F914F913F912F9101
:100F30000F900FBE0F901F9018951F920F920FB633
:100F40000F9211242F933F934F935F936F937F934F
:100F50008F939F93AF93BF93CF93EF93FF9396B1EC
:100F6000C09155018091540130915301292F209552
:100F700023238923822B20916C00C927C223C823F5
:100F800090935501CC23F1F0C0FF03C0F0E0E0E006
:100F90000995C1FF03C0F0E0E0E00995C2FF03C07E
:100FA000F0E0E0E00995C3FF03C0F0E0E0E0099560
:100FB000C4FF03C0F0E0E0E00995C5FF03C0F0E026
:100FC000E0E00995FF91EF91CF91BF91AF919F9193
:100FD0008F917F916F915F914F913F912F910F90E2
:100FE0000FBE0F901F9018951F920F920FB60F9281
:100FF00011242F933F934F935F936F937F938F931E
:101000009F93AF93BF93CF93EF93FF9393B1C0910F
:1010100052018091510130915001292F20952323B5
:101020008923822B20916B00C927C223C823909368
:101030005201CC23F1F0C0FF03C0F0E0E0E00995DD
:10104000C1FF03C0F0E0E0E00995C2FF03C0F0E09B
:10105000E0E00995C3FF03C0F0E0E0E00995C4FFBC
:1010600003C0F0E0E0E00995C5FF03C0F0E0E0E078
:101070000995FF91EF91CF91BF91AF919F918F9182
:101080007F916F915F914F913F912F910F900FBE84
:101090000F901F901895E8E6F1E01382128288EE17
:1010A00093E0A0E0B0E084839583A683B7838EE0CD
:1010B00091E09183808385EC90E09587848784EC30
:1010C00090E09787868780EC90E0918B808B81EC15
:1010D00090E0938B828B82EC90E0958B848B86ECF6
:1010E00090E0978B868B118E128E138E148E109239
:1010F0000C02E3E1F2E01182108213821282EEE030
:10110000F2E011821082138212821482EAE7F2E086
:101110001582148217821086118688E491E09383E9
:101120008283128A138A148A158A81E0868B8683C9
:10113000138E128E158E168E178E2EE331E0318FA0
:10114000208F10A2848F12A216A215A210A611A69B
:1011500012A624E331E034A323A313A687A388E0D7
:1011600084A715A616A617A610AA13AA12AA11AA32
:1011700016AA15AA14AA17AA10AEE7E1F2E0138284
:101180001282A8E7B2E0B583A48316821186108686
:10119000178212861386148615861686118A108A7F
:1011A0001786148A138A128A158A168A80E290E0BA
:1011B00090936B0280936A0227E431E030936D02D2
:1011C00020936C0210926E0210926F0210927302C2
:1011D00010927202109274021092750210927602AE
:1011E0001092770220E231E0318320832EE231E059
:1011F00030937102209370028D939C930895CF9346
:10120000DF9300D01F92CDB7DEB7789484B58360AA
:1012100084BD85B5836085BD80916E0081608093BB
:101220006E0082E0809381008091810081608093D4
:101230008100809180008160809380008091B10066
:1012400084608093B1008091B00081608093B00091
:1012500086E880937A001092C1008AE792E090932A
:101260001A028093190260916C0270916D0243E042
:1012700050E0CE0101960E947F0BFB8084E08093BA
:101280008E0261E00E9440018CE792E00E94BA0267
:10129000E89881E791E090930101809300018BE948
:1012A00092E090935E0180935D0160E082E00E9495
:1012B000400161E08AE00E9440011FB7F8948091EC
:1012C0005C01811127C0ECE0F1E08491E3E2F1E000
:1012D0009491E82FF0E0EE0FFF1FE251FF4FA59130
:1012E000B491EC91E92321F461E08AE00E941201BB
:1012F00061E08AE00E9440018CB580618CBD8CB5B4
:1013000080648CBD61E08DE00E94400161E08BE073
:101310000E94400180915C018F5F80935C011FBF40
:101320000E94B2020E947F020E94AE0245E84A95E6
:10133000F1F700000E94B2020E947F0280E590E077
:101340000E94E60080E30E94B4040E947F020E9493
:10135000AE020AEB10E0EE24E394F80131966491BA
:10136000F801849143E00E942A05811101C0E12C1B
:101370000E5F1F4FF0E00E3E1F0779F783E30E94D8
:10138000C6048FEA93EB0197F1F700C0000043E039
:1013900060EC8EE30E942A05EE2039F00E94BB0427
:1013A0000E94D70484E30E94C60483EC92E09093E9
:1013B000010180930001809169008C7F826080939D
:1013C0006900E89A80E18093810010928000109279
:1013D00085001092840080E49CE9909387008093BC
:1013E000860081E18093810080916F00816080930D
:1013F0006F0006E010E0E11002C008E010E08CE7AA
:1014000092E00E94ED038CE792E00E94BA02B801DC
:10141000E3E0660F771FEA95E1F76E587F4F48E0EB
:1014200050E084E892E00E947F0B80918402882340
:1014300071F010928C0210928D0263E172E08CE7E1
:1014400092E00E9478038CE792E00E94CE028DE940
:1014500092E00E94ED038F2D90E001962AE0289FF4
:10146000D001299FB00D112424E630E00E94210C08
:1014700028EE33E040E050E00E94F00B2093A202FF
:101480003093A3024093A40281E08093A5026DE90A
:1014900072E083E192E00E94060380916A025CEFB1
:1014A000E52EE80E855090E004960E948705D82E20
:1014B00000E01EE5AE2DA150BB0B7D01802F90E01A
:1014C0008E159F0534F404960E94870518270F5F38
:1014D000F5CF1D111DC084E090E00E948705182FF4
:1014E00085E090E00E948705082F80EA810F8B300D
:1014F00078F443E061E28DE00E942A0543E0612F29
:101500008EE00E942A0543E0602F8FE00E942A05AA
:1015100060E772E083E192E00E94060336E7A32EC3
:1015200040E0C42E40E0D42E85E192E00E94C80342
:10153000FC01009779F0029769F022812D7F2283C8
:10154000DC01ED91FC910190F081E02D63E172E00E
:101550000995EACF0091190210911A02F80184A5A9
:1015600082FFC1C084A58B7F84A77801FEE2EF0EC5
:10157000F11C60EC8BE30E94E00418169CF1B12C86
:101580008AE30E94C604EBE7F1E03197F1F700C06F
:1015900000000E94D70484E30E94C604BB2009F423
:1015A0006CC0D8019D96BC929D979E968C919E97FB
:1015B000982F9A259E969C93A1E04B2D50E09A017E
:1015C000215031096A2F70E0F701E60FF71F908173
:1015D000621773070CF047C0845289278083AF5F7E
:1015E000892FF0CF60E88FE30E94E004B82E47E433
:1015F000481728F280E590E00E94E6000E94B202BF
:101600008FEF0E94B4047E2C4701882D87198B151B
:1016100038F480E00E94B404D4018D934D01F5CFDD
:101620000E94AE0260E88FE30E94E004282F30E0C1
:10163000082E000C990B88279170F901E81BF90B13
:10164000CF01F7FD01969595879591958195910923
:10165000865BD80192968C9360E88FE30E94E00449
:1016600087FF8DCF8DCFD8019F968C91892780835E
:10167000B70183E292E00E94530DB0922202F8017A
:1016800015A684A580FF0CC00E94BB0484E30E94C1
:10169000C604D8019C968C919C978E7F9C968C93C7
:1016A000809122028A30F8F060916C0270916D0294
:1016B00043E050E0CE0101960E947F0B29819A8180
:1016C0008B8130912602321308C020912702291302
:1016D00004C090912802981731F062E272E087E12D
:1016E00092E00E949F03C114D10409F41DCF0E940F
:1016F000DC01882309F418CF0E94000015CFFB01FC
:10170000DC0102C005900D9241505040D8F7089579
:10171000DC01CB01FC01F999FECF06C0F2BDE1BDB1
:10172000F89A319600B40D9241505040B8F70895A0
:101730000E94CF0B88F09F5798F0B92F9927B75187
:10174000B0F0E1F0660F771F881F991F1AF0BA9565
:10175000C9F714C0B13091F00E94E90BB1E00895CF
:101760000C94E90B672F782F8827B85F39F0B93FC1
:10177000CCF3869577956795B395D9F73EF4909518
:101780008095709561957F4F8F4F9F4F089557FDBE
:101790009058440F551F59F05F3F71F04795880FDF
:1017A00097FB991F61F09F3F79F087950895121676
:1017B00013061406551FF2CF4695F1DF08C0161622
:1017C00017061806991FF1CF8695710561050894D3
:1017D0000895E894BB2766277727CB0197F90895EA
:1017E000A1E21A2EAA1BBB1BFD010DC0AA1FBB1F25
:1017F000EE1FFF1FA217B307E407F50720F0A21B97
:10180000B30BE40BF50B661F771F881F991F1A9403
:1018100069F760957095809590959B01AC01BD012D
:10182000CF010895A29FB001B39FC001A39F700D87
:10183000811D1124911DB29F700D811D1124911DD8
:1018400008950E94120CB7FF0895821B930B089510
:10185000EE0FFF1F0590F491E02D09940F931F9355
:10186000CF93DF938230910510F482E090E0E09115
:10187000F202F091F30230E020E0B0E0A0E0309717
:1018800099F42115310509F44AC0281B390B24307D
:101890003105D8F58A819B816115710589F1FB01BC
:1018A00093838283FE0111C04081518102811381A3
:1018B00048175907E0F04817590799F4109761F055
:1018C00012960C93129713961C933296CF01DF91C8
:1018D000CF911F910F9108950093F2021093F3029C
:1018E000F4CF2115310551F04217530738F0A90103
:1018F000DB019A01BD01DF01F801C1CFEF01F9CF92
:101900009093F3028093F202CDCFFE01E20FF31F1A
:10191000819391932250310939832883D7CF209125
:10192000F0023091F102232B41F420910601309115
:1019300007013093F1022093F002209104013091CD
:1019400005012115310541F42DB73EB7409108013D
:1019500050910901241B350BE091F002F091F10246
:10196000E217F307A0F42E1B3F0B2817390778F076
:10197000AC014E5F5F4F2417350748F04E0F5F1FD5
:101980005093F1024093F002819391939FCFF0E046
:10199000E0E09CCFCF93DF930097E9F0FC01329712
:1019A00013821282A091F202B091F302ED0130E0B5
:1019B00020E01097A1F420813181820F931F2091A4
:1019C000F0023091F1022817390709F061C0F09355
:1019D000F102E093F002DF91CF910895EA01CE1772
:1019E000DF07E8F54A815B819E0141155105B1F79A
:1019F000E901FB83EA8349915991C40FD51FEC1784
:101A0000FD0761F4808191810296840F951FE901A1
:101A100099838883828193819B838A83F0E0E0E0CD
:101A200012968D919C9113970097B9F52D913C9149
:101A30001197CD010296820F931F2091F0023091F1
:101A4000F1022817390739F6309751F51092F30251
:101A50001092F202B093F102A093F002BCCFD383B4
:101A6000C28340815181840F951FC817D90761F443
:101A70004E5F5F4F88819981480F591F5183408382
:101A80008A819B81938382832115310509F0B0CF30
:101A9000F093F302E093F2029ECFFD01DC01C0CF90
:101AA00013821282D7CFFB01DC0102C001900D929C
:0C1AB00041505040D8F70895F894FFCF43
:101ABC00710100000000F40280000000000012021E
:101ACC0072019F015F02D001AE01C2010000000053
:101ADC00E0029F05B9029F03F804A7FF000026054A
:101AEC0000000000B602DD029B0500000000B602FB
:0E1AFC00DD02A105000000005905DE029D0577
:00000001FF
